{
  "contractName": "Flashloan",
  "abi": [
    {
      "inputs": [
        {
          "internalType": "address",
          "name": "_wethAddress",
          "type": "address"
        },
        {
          "internalType": "address",
          "name": "_beneficiary",
          "type": "address"
        }
      ],
      "payable": true,
      "stateMutability": "payable",
      "type": "constructor"
    },
    {
      "anonymous": false,
      "inputs": [
        {
          "indexed": false,
          "internalType": "address",
          "name": "_sender",
          "type": "address"
        },
        {
          "indexed": false,
          "internalType": "address",
          "name": "_contract",
          "type": "address"
        },
        {
          "indexed": false,
          "internalType": "uint256",
          "name": "_wethBalance",
          "type": "uint256"
        },
        {
          "indexed": false,
          "internalType": "uint256",
          "name": "_balOfLoanedToken",
          "type": "uint256"
        },
        {
          "indexed": false,
          "internalType": "uint256",
          "name": "_repayAmount",
          "type": "uint256"
        }
      ],
      "name": "LogFirstSwap",
      "type": "event"
    },
    {
      "constant": false,
      "inputs": [
        {
          "internalType": "address",
          "name": "sender",
          "type": "address"
        },
        {
          "components": [
            {
              "internalType": "address",
              "name": "owner",
              "type": "address"
            },
            {
              "internalType": "uint256",
              "name": "number",
              "type": "uint256"
            }
          ],
          "internalType": "struct Account.Info",
          "name": "account",
          "type": "tuple"
        },
        {
          "internalType": "bytes",
          "name": "data",
          "type": "bytes"
        }
      ],
      "name": "callFunction",
      "outputs": [],
      "payable": false,
      "stateMutability": "nonpayable",
      "type": "function"
    },
    {
      "constant": false,
      "inputs": [
        {
          "internalType": "address",
          "name": "_solo",
          "type": "address"
        },
        {
          "internalType": "address",
          "name": "_token",
          "type": "address"
        },
        {
          "internalType": "uint256",
          "name": "_amount",
          "type": "uint256"
        }
      ],
      "name": "initiateFlashLoan",
      "outputs": [],
      "payable": false,
      "stateMutability": "nonpayable",
      "type": "function"
    }
  ],
  "bytecode": "0x608060405260405162001850380380620018508339818101604052620000299190810190620000c9565b816000806101000a81548173ffffffffffffffffffffffffffffffffffffffff021916908373ffffffffffffffffffffffffffffffffffffffff16021790555080600160006101000a81548173ffffffffffffffffffffffffffffffffffffffff021916908373ffffffffffffffffffffffffffffffffffffffff160217905550505062000158565b600081519050620000c3816200013e565b92915050565b60008060408385031215620000dd57600080fd5b6000620000ed85828601620000b2565b92505060206200010085828601620000b2565b9150509250929050565b600062000117826200011e565b9050919050565b600073ffffffffffffffffffffffffffffffffffffffff82169050919050565b62000149816200010a565b81146200015557600080fd5b50565b6116e880620001686000396000f3fe608060405234801561001057600080fd5b50600436106100365760003560e01c80638b4187131461003b578063f484012314610057575b600080fd5b61005560048036036100509190810190610dbc565b610073565b005b610071600480360361006c9190810190610d6d565b61033a565b005b61007b610a2c565b8180602001905161008f9190810190610e4c565b90506000816000015173ffffffffffffffffffffffffffffffffffffffff166370a08231306040518263ffffffff1660e01b81526004016100d091906112d3565b60206040518083038186803b1580156100e857600080fd5b505afa1580156100fc573d6000803e3d6000fd5b505050506040513d601f19601f820116820180604052506101209190810190610e75565b905060008060009054906101000a900473ffffffffffffffffffffffffffffffffffffffff1673ffffffffffffffffffffffffffffffffffffffff166370a08231306040518263ffffffff1660e01b815260040161017e91906112d3565b60206040518083038186803b15801561019657600080fd5b505afa1580156101aa573d6000803e3d6000fd5b505050506040513d601f19601f820116820180604052506101ce9190810190610e75565b90507f381a68e1359edac10547f0e844a2641478b77e1fadaef0e57b36a080c240c08b86308385876040015160405161020b9594939291906112ee565b60405180910390a16000600190506000809054906101000a900473ffffffffffffffffffffffffffffffffffffffff1673ffffffffffffffffffffffffffffffffffffffff1663a9059cbb600160009054906101000a900473ffffffffffffffffffffffffffffffffffffffff16836040518363ffffffff1660e01b8152600401610297929190611341565b602060405180830381600087803b1580156102b157600080fd5b505af11580156102c5573d6000803e3d6000fd5b505050506040513d601f19601f820116820180604052506102e99190810190610e23565b508360400151831015610331576040517f08c379a0000000000000000000000000000000000000000000000000000000008152600401610328906113c1565b60405180910390fd5b50505050505050565b6000839050600061034b85856105b3565b9050600061035884610765565b90508473ffffffffffffffffffffffffffffffffffffffff1663095ea7b387836040518363ffffffff1660e01b8152600401610395929190611341565b602060405180830381600087803b1580156103af57600080fd5b505af11580156103c3573d6000803e3d6000fd5b505050506040513d601f19601f820116820180604052506103e79190810190610e23565b506060600360405190808252806020026020018201604052801561042557816020015b610412610a63565b81526020019060019003908161040a5790505b5090506104328386610782565b8160008151811061043f57fe5b60200260200101819052506104a260405180606001604052808873ffffffffffffffffffffffffffffffffffffffff1681526020018781526020018481525060405160200161048e9190611401565b60405160208183030381529060405261083b565b816001815181106104af57fe5b60200260200101819052506104c483836108e5565b816002815181106104d157fe5b60200260200101819052506060600160405190808252806020026020018201604052801561051957816020015b610506610acf565b8152602001906001900390816104fe5790505b50905061052461099e565b8160008151811061053157fe5b60200260200101819052508473ffffffffffffffffffffffffffffffffffffffff1663a67a6a4582846040518363ffffffff1660e01b815260040161057792919061136a565b600060405180830381600087803b15801561059157600080fd5b505af11580156105a5573d6000803e3d6000fd5b505050505050505050505050565b60008083905060008173ffffffffffffffffffffffffffffffffffffffff1663295c39a56040518163ffffffff1660e01b815260040160206040518083038186803b15801561060157600080fd5b505afa158015610615573d6000803e3d6000fd5b505050506040513d601f19601f820116820180604052506106399190810190610e75565b9050600080600090505b82811015610723578373ffffffffffffffffffffffffffffffffffffffff1663062bd3e9826040518263ffffffff1660e01b8152600401610684919061141c565b60206040518083038186803b15801561069c57600080fd5b505afa1580156106b0573d6000803e3d6000fd5b505050506040513d601f19601f820116820180604052506106d49190810190610d44565b91508573ffffffffffffffffffffffffffffffffffffffff168273ffffffffffffffffffffffffffffffffffffffff161415610716578094505050505061075f565b8080600101915050610643565b506040517f08c379a0000000000000000000000000000000000000000000000000000000008152600401610756906113e1565b60405180910390fd5b92915050565b600061077b6002836109d790919063ffffffff16565b9050919050565b61078a610aff565b604051806101000160405280600160088111156107a357fe5b8152602001600081526020016040518060800160405280600015158152602001600060018111156107d057fe5b8152602001600060018111156107e257fe5b8152602001858152508152602001848152602001600081526020013073ffffffffffffffffffffffffffffffffffffffff1681526020016000815260200160405180602001604052806000815250815250905092915050565b610843610aff565b60405180610100016040528060088081111561085b57fe5b81526020016000815260200160405180608001604052806000151581526020016000600181111561088857fe5b81526020016000600181111561089a57fe5b81526020016000815250815260200160008152602001600081526020013073ffffffffffffffffffffffffffffffffffffffff16815260200160008152602001838152509050919050565b6108ed610aff565b6040518061010001604052806000600881111561090657fe5b81526020016000815260200160405180608001604052806001151581526020016000600181111561093357fe5b81526020016000600181111561094557fe5b8152602001858152508152602001848152602001600081526020013073ffffffffffffffffffffffffffffffffffffffff1681526020016000815260200160405180602001604052806000815250815250905092915050565b6109a6610b6b565b60405180604001604052803073ffffffffffffffffffffffffffffffffffffffff1681526020016001815250905090565b600080828401905083811015610a22576040517f08c379a0000000000000000000000000000000000000000000000000000000008152600401610a19906113a1565b60405180910390fd5b8091505092915050565b6040518060600160405280600073ffffffffffffffffffffffffffffffffffffffff16815260200160008152602001600081525090565b60405180610100016040528060006008811115610a7c57fe5b815260200160008152602001610a90610b9b565b81526020016000815260200160008152602001600073ffffffffffffffffffffffffffffffffffffffff16815260200160008152602001606081525090565b6040518060400160405280600073ffffffffffffffffffffffffffffffffffffffff168152602001600081525090565b60405180610100016040528060006008811115610b1857fe5b815260200160008152602001610b2c610b9b565b81526020016000815260200160008152602001600073ffffffffffffffffffffffffffffffffffffffff16815260200160008152602001606081525090565b6040518060400160405280600073ffffffffffffffffffffffffffffffffffffffff168152602001600081525090565b604051806080016040528060001515815260200160006001811115610bbc57fe5b815260200160006001811115610bce57fe5b8152602001600081525090565b600081359050610bea81611660565b92915050565b600081519050610bff81611660565b92915050565b600081519050610c1481611677565b92915050565b600082601f830112610c2b57600080fd5b8135610c3e610c3982611464565b611437565b91508082526020830160208301858383011115610c5a57600080fd5b610c658382846115e6565b50505092915050565b600060408284031215610c8057600080fd5b610c8a6040611437565b90506000610c9a84828501610bdb565b6000830152506020610cae84828501610d1a565b60208301525092915050565b600060608284031215610ccc57600080fd5b610cd66060611437565b90506000610ce684828501610bf0565b6000830152506020610cfa84828501610d2f565b6020830152506040610d0e84828501610d2f565b60408301525092915050565b600081359050610d298161168e565b92915050565b600081519050610d3e8161168e565b92915050565b600060208284031215610d5657600080fd5b6000610d6484828501610bf0565b91505092915050565b600080600060608486031215610d8257600080fd5b6000610d9086828701610bdb565b9350506020610da186828701610bdb565b9250506040610db286828701610d1a565b9150509250925092565b600080600060808486031215610dd157600080fd5b6000610ddf86828701610bdb565b9350506020610df086828701610c6e565b925050606084013567ffffffffffffffff811115610e0d57600080fd5b610e1986828701610c1a565b9150509250925092565b600060208284031215610e3557600080fd5b6000610e4384828501610c05565b91505092915050565b600060608284031215610e5e57600080fd5b6000610e6c84828501610cba565b91505092915050565b600060208284031215610e8757600080fd5b6000610e9584828501610d2f565b91505092915050565b6000610eaa838361113c565b905092915050565b6000610ebe8383611244565b60408301905092915050565b610ed38161152f565b82525050565b610ee28161152f565b82525050565b6000610ef3826114b0565b610efd81856114eb565b935083602082028501610f0f85611490565b8060005b85811015610f4b5784840389528151610f2c8582610e9e565b9450610f37836114d1565b925060208a01995050600181019050610f13565b50829750879550505050505092915050565b6000610f68826114bb565b610f7281856114fc565b9350610f7d836114a0565b8060005b83811015610fae578151610f958882610eb2565b9750610fa0836114de565b925050600181019050610f81565b5085935050505092915050565b610fc481611541565b82525050565b6000610fd5826114c6565b610fdf818561150d565b9350610fef8185602086016115f5565b610ff881611628565b840191505092915050565b61100c816115b0565b82525050565b61101b816115c2565b82525050565b61102a816115d4565b82525050565b600061103d601b8361151e565b91507f536166654d6174683a206164646974696f6e206f766572666c6f7700000000006000830152602082019050919050565b600061107d60248361151e565b91507f4e6f7420656e6f7567682066756e647320746f2072657061792064796478206c60008301527f6f616e21000000000000000000000000000000000000000000000000000000006020830152604082019050919050565b60006110e360248361151e565b91507f4e6f206d61726b6574496420666f756e6420666f722070726f7669646564207460008301527f6f6b656e000000000000000000000000000000000000000000000000000000006020830152604082019050919050565b6000610160830160008301516111556000860182611003565b50602083015161116860208601826112b5565b50604083015161117b60408601826111ef565b50606083015161118e60c08601826112b5565b5060808301516111a160e08601826112b5565b5060a08301516111b5610100860182610eca565b5060c08301516111c96101208601826112b5565b5060e08301518482036101408601526111e28282610fca565b9150508091505092915050565b6080820160008201516112056000850182610fbb565b5060208201516112186020850182611012565b50604082015161122b6040850182611021565b50606082015161123e60608501826112b5565b50505050565b60408201600082015161125a6000850182610eca565b50602082015161126d60208501826112b5565b50505050565b6060820160008201516112896000850182610eca565b50602082015161129c60208501826112b5565b5060408201516112af60408501826112b5565b50505050565b6112be816115a6565b82525050565b6112cd816115a6565b82525050565b60006020820190506112e86000830184610ed9565b92915050565b600060a0820190506113036000830188610ed9565b6113106020830187610ed9565b61131d60408301866112c4565b61132a60608301856112c4565b61133760808301846112c4565b9695505050505050565b60006040820190506113566000830185610ed9565b61136360208301846112c4565b9392505050565b600060408201905081810360008301526113848185610f5d565b905081810360208301526113988184610ee8565b90509392505050565b600060208201905081810360008301526113ba81611030565b9050919050565b600060208201905081810360008301526113da81611070565b9050919050565b600060208201905081810360008301526113fa816110d6565b9050919050565b60006060820190506114166000830184611273565b92915050565b600060208201905061143160008301846112c4565b92915050565b6000604051905081810181811067ffffffffffffffff8211171561145a57600080fd5b8060405250919050565b600067ffffffffffffffff82111561147b57600080fd5b601f19601f8301169050602081019050919050565b6000819050602082019050919050565b6000819050602082019050919050565b600081519050919050565b600081519050919050565b600081519050919050565b6000602082019050919050565b6000602082019050919050565b600082825260208201905092915050565b600082825260208201905092915050565b600082825260208201905092915050565b600082825260208201905092915050565b600061153a82611586565b9050919050565b60008115159050919050565b600081905061155b82611639565b919050565b600081905061156e82611646565b919050565b600081905061158182611653565b919050565b600073ffffffffffffffffffffffffffffffffffffffff82169050919050565b6000819050919050565b60006115bb8261154d565b9050919050565b60006115cd82611560565b9050919050565b60006115df82611573565b9050919050565b82818337600083830152505050565b60005b838110156116135780820151818401526020810190506115f8565b83811115611622576000848401525b50505050565b6000601f19601f8301169050919050565b6009811061164357fe5b50565b6002811061165057fe5b50565b6002811061165d57fe5b50565b6116698161152f565b811461167457600080fd5b50565b61168081611541565b811461168b57600080fd5b50565b611697816115a6565b81146116a257600080fd5b5056fea365627a7a72315820b7c3b4ed289562a27b855192312ecbd814f99583e6bd064935defa6bbda032c16c6578706572696d656e74616cf564736f6c63430005100040",
  "source": "// SPDX-License-Identifier: MIT\r\npragma solidity ^0.5.0;\r\npragma experimental ABIEncoderV2;\r\n\r\nimport \"@studydefi/money-legos/dydx/contracts/DydxFlashloanBase.sol\";\r\nimport \"@studydefi/money-legos/dydx/contracts/ICallee.sol\";\r\nimport \"@openzeppelin/contracts/token/ERC20/IERC20.sol\";\r\n\r\ncontract Flashloan is ICallee, DydxFlashloanBase {\r\n    IERC20 weth;\r\n    address beneficiay;\r\n\r\n    struct MyCustomData {\r\n        address token;\r\n        uint amount;\r\n        uint256 repayAmount;\r\n    }\r\n\r\n    event LogFirstSwap(address _sender, address _contract, uint _wethBalance, uint _balOfLoanedToken, uint _repayAmount);\r\n\r\n    constructor(\r\n        address _wethAddress,\r\n        address _beneficiary\r\n    ) public payable{\r\n        weth = IERC20(_wethAddress);\r\n        beneficiay = _beneficiary;\r\n    }\r\n\r\n    // This is the function that will be called postLoan\r\n    // i.e. Encode the logic to handle your flashloaned funds here\r\n    function callFunction(\r\n        address sender,\r\n        Account.Info memory account,\r\n        bytes memory data\r\n    ) public {\r\n        MyCustomData memory mcd = abi.decode(data, (MyCustomData));\r\n        uint256 balOfLoanedToken = IERC20(mcd.token).balanceOf(address(this));\r\n        \r\n        uint wethBalance = weth.balanceOf(address(this));\r\n        emit LogFirstSwap(sender, address(this), wethBalance, balOfLoanedToken, mcd.repayAmount);\r\n\r\n        //Your code goes here, example:\r\n        uint _amount = 1 wei;\r\n        weth.transfer(beneficiay, _amount);\r\n\r\n        // Note that you can ignore the line below\r\n        // if your dydx account (this contract in this case)\r\n        // has deposited at least ~2 Wei of assets into the account\r\n        // to balance out the collaterization ratio\r\n        require(\r\n            balOfLoanedToken >= mcd.repayAmount,\r\n            \"Not enough funds to repay dydx loan!\"\r\n        );\r\n\r\n        // TODO: Encode your logic here\r\n        // E.g. arbitrage, liquidate accounts, etc\r\n        //revert(\"Hello, you haven't encoded your logic\");\r\n    }\r\n\r\n\r\n    //Solo Margin Contract: 0x4EC3570cADaAEE08Ae384779B0f3A45EF85289DE\r\n    function initiateFlashLoan(\r\n        address _solo,\r\n        address _token,\r\n        uint256 _amount)\r\n        external\r\n    {\r\n        ISoloMargin solo = ISoloMargin(_solo);\r\n\r\n        // Get marketId from token address\r\n        uint256 marketId = _getMarketIdFromTokenAddress(_solo, _token);\r\n\r\n        // Calculate repay amount (_amount + (2 wei))\r\n        // Approve transfer from\r\n        uint256 repayAmount = _getRepaymentAmountInternal(_amount);\r\n        IERC20(_token).approve(_solo, repayAmount);\r\n\r\n        // 1. Withdraw $\r\n        // 2. Call callFunction(...)\r\n        // 3. Deposit back $\r\n        Actions.ActionArgs[] memory operations = new Actions.ActionArgs[](3);\r\n\r\n        operations[0] = _getWithdrawAction(marketId, _amount);\r\n        operations[1] = _getCallAction(\r\n            // Encode MyCustomData for callFunction\r\n            abi.encode(MyCustomData({token: _token, amount: _amount, repayAmount: repayAmount}))\r\n        );\r\n        operations[2] = _getDepositAction(marketId, repayAmount);\r\n\r\n        Account.Info[] memory accountInfos = new Account.Info[](1);\r\n        accountInfos[0] = _getAccountInfo();\r\n\r\n        solo.operate(accountInfos, operations);\r\n    }\r\n}",
  "sourcePath": "C:/dApps/Github/dydx/contracts/Flashloan.sol",
  "compiler": {
    "name": "solc",
    "version": "0.5.16+commit.9c3226ce.Emscripten.clang"
  },
  "schemaVersion": "3.3.4",
  "updatedAt": "2021-07-08T23:32:05.442Z",
  "networkType": "ethereum",
  "devdoc": {
    "methods": {}
  },
  "userdoc": {
    "methods": {}
  }
}